:100000000C944C000C9469000C9469000C946900E9
:100010000C9469000C9469000C9469000C946900BC
:100020000C9469000C9469000C9469000C946900AC
:100030000C9469000C9469000C9469000C9469009C
:100040000C9469000C9469000C9469000C9469008C
:100050000C9469000C9469000C9469000C9469007C
:100060000C9469000C9469000C94CC000C94690009
:100070000C9469000C9469000C9469000C9469005C
:100080000C9469000C9469000C9469000C9469004C
:100090000C9469000C94690011241FBECFEFD0E1CD
:1000A000DEBFCDBF11E0A0E0B1E0EEEDF3E002C0B5
:1000B00005900D92A230B107D9F711E0A2E0B1E0AE
:1000C00001C01D92A638B107E1F70E94EC010C9423
:1000D000ED010C94000082E08093C80080E190E084
:1000E0009093CD008093CC00E9ECF0E088E1808330
:1000F00086E08093CA008081806A808308951F9281
:100100000F920FB60F9211242F933F938F939F93CB
:10011000EF93FF932FB7809104013091050190E098
:10012000831B910901978F739927892B79F0E091AF
:100130000501F0E08091CE00EA5FFE4F8083809160
:1001400005018F5F8F738093050102C08091CE00FF
:100150008091000182FF14C080910401309105015B
:1001600090E0831B910901978F739927409744F47E
:1001700086E0809300018091C90080628093C9006D
:100180002FBFFF91EF919F918F913F912F910F90F2
:100190000FBE0F901F9018951F920F920FB60F92DF
:1001A00011242F933F938F939F93EF93FF932FB738
:1001B0008091000180FF07C081E18093CE0084E040
:1001C0008093000129C08091000181FF06C083E176
:1001D0008093CE00109200011FC0809105013091E4
:1001E000040190E0831B91098F739927892B79F083
:1001F000E0910201F0E0EA5BFE4F80818093CE0047
:10020000809102018F5F8F738093020105C08091FE
:10021000C9008F7D8093C9002FBFFF91EF919F91FF
:100220008F913F912F910F900FBE0F901F901895B7
:100230008091050190910401891B8F73089580912D
:1002400005012091040190E0821B91098F73992789
:10025000892B69F0E0910401F0E0EA5FFE4F8081B4
:10026000909104019F5F9F739093040101C080E00F
:100270009091000192FD14C020910501909104011C
:1002800030E0291B31092F7333272031310544F425
:1002900091E0909300019091C90090629093C90001
:1002A00008950FB607FE1BC00CC0E0910301F0E0FB
:1002B000EA5BFE4F8083909103019F5F9F73909351
:1002C0000301209102019091030130E0291B3109C3
:1002D000215031092F733327232B39F319C0209173
:1002E00002019091030130E0291B310921503109AD
:1002F0002F733327232B61F0E0910301F0E0EA5BD9
:10030000FE4F8083809103018F5F8F738093030181
:100310008091C90080628093C9000895EF92FF9296
:100320000F931F93CF93DF937B01EC018C0105C0EA
:10033000F80181918F010E945101C8018C1B9D0B16
:100340008E159F05ACF3DF91CF911F910F91FF9018
:10035000EF9008951F93CF93DF93EC0110E002C05C
:100360000E945101FE01E10FF11D80811F5F81118B
:10037000F7CFDF91CF911F910895EF92FF920F93E6
:100380001F93CF93DF938C017B01C0E0D0E007C0C7
:10039000F801EC0FFD1F84910E9451012196CE15AA
:1003A000DF05B4F3DF91CF911F910F91FF90EF9094
:1003B00008951F93CF93DF93EC0110E002C00E94D9
:1003C0005101FE01E10FF11D1F5F84918111F7CFF3
:0E03D000DF91CF911F910895FFCFF894FFCFDA
:0203DE0001001C
:00000001FF
